:020000040800F2
:10000000002800202D1A0008BD190008C319000897
:10001000C9190008CF190008D51900080000000010
:10002000000000000000000000000000DB190008D4
:10003000E719000800000000F3190008FF19000884
:10004000751A0008751A0008751A0008751A000854
:10005000751A0008751A0008751A0008751A000844
:10006000751A0008751A0008751A0008751A000834
:10007000751A0008751A0008751A0008751A000824
:10008000751A0008751A0008751A0008751A000814
:10009000751A0008751A0008751A0008751A000804
:1000A000751A0008751A0008751A0008751A0008F4
:1000B0000D1A0008751A000800000000751A0008E3
:1000C000751A00080000000000000000751A000802
:1000D00000000000751A0008751A000800000000F2
:1000E000751A0008751A0008751A0008000000004B
:1000F0000000000000000000000000000000000000
:0C01000000000000000000005FF808F1A3
:10010C0010B5054C237833B9044B13B10448AFF345
:10011C0000800123237010BD5C0000200000000053
:10012C00A430000808B5034B1BB103490348AFF3D7
:10013C00008008BD0000000060000020A430000812
:10014C0080B400AF064B1B68012B04D1044B00227A
:10015C001A60012300E000231846BD4680BC70479E
:10016C007800002080B400AF064B1B68012B04D133
:10017C00044B00221A60012300E000231846BD4600
:10018C0080BC70477C00002080B400AF064B1B681D
:10019C00012B04D1044B00221A60012300E0002340
:1001AC001846BD4680BC70478000002080B582B0E8
:1001BC0000AF00237B609FE0544A7B6852F82320F9
:1001CC0053497B6841F82320524A7B6852F823201C
:1001DC004E497B6841F823207B68022B21D07B6839
:1001EC00022B2ADC7B68002B03D07B68012B0CD004
:1001FC0023E04FF40051484801F022FF0346194612
:10020C00444A7B6842F8231018E04FF4804142487E
:10021C0001F016FF034619463E4A7B6842F823104C
:10022C000CE04FF400413C4801F00AFF034619462C
:10023C00384A7B6842F8231000E000BF344A7B68E0
:10024C0052F8232031497B6851F823309A4250D11F
:10025C002E4A7B6852F823202E497B6851F82330B4
:10026C009A4246D12D4A7B6852F8232029497B6853
:10027C0051F823309A422BD0264A7B6852F823201F
:10028C0026497B6841F82320224A7B6852F82330A8
:10029C00002B2ED17B68022B11D07B68022B12DC39
:1002AC007B68002B03D07B68012B04D00BE01C4B2C
:1002BC0001221A6008E01B4B01221A6004E01A4B61
:1002CC0001221A6000E000BF184B32221A6010E0C5
:1002DC00164B1B68013B154A1360144B1B68002B13
:1002EC0007DC0E4A7B68012142F823100F4B3222A7
:1002FC001A607B6801337B607B68022B7FF75CAFF5
:10030C0000BF00BF0837BD4680BD00BF0C000020F9
:10031C0000000020180000200010014024000020E4
:10032C00780000207C00002080000020300000209D
:10033C0080B500AFB74B1B680A3B042B00F2BD81A4
:10034C0001A252F823F000BF69030008C50300089E
:10035C008504000839050008F70500080122202152
:10036C00AD4801F084FE01224021AB4801F07FFE34
:10037C0001228021A84801F07AFE01224FF48071FD
:10038C00A54801F074FE01224FF40071A24801F05F
:10039C006EFE01224FF480619F4801F068FE9D4B78
:1003AC000B221A609D4B1B68184601F0D9F84FF4CC
:1003BC00FA7001F023F989E101222021964801F01D
:1003CC0056FE01224FF40071934801F050FE944BFD
:1003DC001B68C82B21D0C82B39DC0A2B02D0642B0C
:1003EC0004D034E08E4B64221A6030E0002280216D
:1003FC00894801F03CFE01224FF48071864801F0DF
:10040C0036FE884B1B68012B1ED1854BC8221A6007
:10041C004FF4FA7001F0F2F816E0012280217E48C8
:10042C0001F025FE00224FF480717B4801F01FFE85
:10043C007C4B1B68012B09D1794B64221A604FF459
:10044C00FA7001F0DBF801E000BF00E000BF764B72
:10045C001B68012B40F03381714B0A221A604FF458
:10046C00FA7001F0CBF86B4B0C221A606F4B1B68C7
:10047C00184601F075F822E101228021664801F04E
:10048C00F6FD674B1B68C82B21D0C82B39DC0A2B17
:10049C0002D0642B04D034E0614B64221A6030E04B
:1004AC00002240215C4801F0E2FD01224FF48071F2
:1004BC00594801F0DCFD5B4B1B68012B1ED1584BDE
:1004CC00C8221A604FF4FA7001F098F816E0012275
:1004DC004021514801F0CBFD00224FF480714E4871
:1004EC0001F0C5FD4F4B1B68012B09D14C4B64220D
:1004FC001A604FF4FA7001F081F801E000BF00E0DF
:10050C0000BF494B1B68012B40F0DB80444B0A2297
:10051C001A604FF4FA7001F071F83E4B0D221A601C
:10052C003E4B1B68184601F01BF8CAE00122402123
:10053C00394801F09CFD01224FF48071364801F0DE
:10054C0096FD374B1B68C82B21D0C82B39DC0A2BE6
:10055C0002D0642B04D034E0314B64221A6030E0BA
:10056C0001224FF480612C4801F081FD00222021F2
:10057C00294801F07CFD2B4B1B68012B1ED1284B0D
:10058C00C8221A604FF4FA7001F038F816E0002215
:10059C004FF48061204801F06AFD012220211E48A1
:1005AC0001F065FD1F4B1B68012B09D11C4B64220C
:1005BC001A604FF4FA7001F021F801E000BF00E07E
:1005CC0000BF194B1B68012B7DD1154B0A221A60F9
:1005DC004FF4FA7001F012F80E4B0E221A60134B06
:1005EC001B68184600F0BCFF6DE001224FF48061DF
:1005FC00094801F03CFD0A4B1B68C82B2FD0C82BB7
:10060C0047DC0A2B02D0642B12D042E0044B64224C
:10061C001A603EE034000020000801404400002035
:10062C003C000020B0000020980000204800002072
:10063C0001224FF400712F4801F019FD00222021F6
:10064C002C4801F014FD2C4B1B68012B1ED12B4B9D
:10065C00C8221A604FF4FA7000F0D0FF16E00022A6
:10066C004FF40071234801F002FD012220212148A2
:10067C0001F0FDFC204B1B68012B09D11F4B6422A0
:10068C001A604FF4FA7000F0B9FF01E000BF00E00F
:10069C0000BF1B4B1B68012B17D1184B0A221A6089
:1006AC004FF4FA7000F0AAFF164B0B221A60164B8F
:1006BC001B68184600F054FF07E000BF06E000BFBF
:1006CC0004E000BF02E000BF00E000BFFFF738FD10
:1006DC000346012B0BD10D4B1B6801335A4203F01F
:1006EC00030302F0030258BF5342084A136000BFD1
:1006FC0080BD00BF00080140B00000203C0000207D
:10070C0098000020340000204400002084000020C9
:10071C0080B500AF984B1B68032B00F2D48101A26B
:10072C0052F823F041070008770700087708000803
:10073C00B1090008FFF7FCFD00F014FBFFF700FD0A
:10074C000346012B40F0C1814FF4FA7000F022FFF8
:10075C00894B1B6801335A4203F0030302F0030276
:10076C0058BF5342844A1360AFE1012240218348B1
:10077C0001F07DFC01228021804801F078FC0122EF
:10078C004FF400717D4801F072FC01224FF480613E
:10079C007A4801F06CFC00224FF48041784801F05B
:1007AC0066FC00224FF40041754801F060FC754B6B
:1007BC001B68012B0CD12021704801F070FC4FF408
:1007CC0080716E4801F06BFC4FF4FA7000F0E2FEA1
:1007DC006D4B1B68184600F091FEFFF7C3FC0346F7
:1007EC00012B0ED1684B1B685A1C684B83FB021300
:1007FC005911D317CB1A642101FB03F3D31A624AA4
:10080C001360FFF7C1FC0346012B17D15E4B1B682D
:10081C004FF47A7202FB03F35D4A13604FF4FA70E3
:10082C0000F0B8FE544B1B6801335A4203F003032B
:10083C0002F0030258BF53424F4A1360FFF780FC8B
:10084C000346012B40F043814FF4FA7000F0A2FEF6
:10085C00494B1B6801335A4203F0030302F00302B5
:10086C0058BF5342444A136031E1012220214348CE
:10087C0001F0FDFB01228021404801F0F8FB012230
:10088C004FF480713D4801F0F2FB01224FF480617E
:10089C003A4801F0ECFB3B4B1B68012B0CD140217F
:1008AC00364801F0FCFB4FF40071344801F0F7FBC3
:1008BC004FF4FA7000F06EFE364B1B68184600F0D1
:1008CC001DFE314B1A68334B1B68D31A324A136026
:1008DC00FFF748FC0346012B12D12F4B1B68002B52
:1008EC000EDD2C4B1B685A1C284B83FB0213591131
:1008FC00D317CB1A642101FB03F3D31A254A1360D7
:10090C00FFF742FC0346012B1FD1224B1B684FF40F
:10091C007A7202FB03F3214A13601F4B1B684FF4DE
:10092C007A7202FB03F31E4A13604FF4FA7000F064
:10093C0031FE114B1B6801335A4203F0030302F0E2
:10094C00030258BF53420C4A1360FFF7F9FB0346EE
:10095C00012B40F0BE804FF4FA7000F01BFE064BEA
:10096C001B6801335A4203F0030302F0030258BF21
:10097C005342014A1360ACE084000020000801409F
:10098C00000C0140A0000020880000201F85EB51C6
:10099C00400000208C000020900000204800002027
:1009AC0044000020012240214C4801F060FB012250
:1009BC0020214A4801F05BFB01224FF400714748AB
:1009CC0001F055FB01224FF48071444801F04FFBBC
:1009DC00434B1B68012B0CD18021404801F05FFB7D
:1009EC004FF480613D4801F05AFB4FF4FA7000F06F
:1009FC00D1FD3C4B1B68184600F080FD3A4B1A6841
:100A0C00384B1B68D31A394A1360FFF7ABFB03460C
:100A1C00012B12D1354B1B68012B0EDD314B1B68A2
:100A2C005A1C334B83FB02135911D317CB1A642175
:100A3C0001FB03F3D31A2B4A1360FFF7A5FB034604
:100A4C00012B1DD1274B1B684FF47A7202FB03F369
:100A5C00284A1360284B0A221A60284B1B68013362
:100A6C005A4203F0030302F0030258BF5342234AD5
:100A7C001360234B0A221A604FF47A7000F0A4FD25
:100A8C00FFF75EFB0346012B25D11B4B0A221A6094
:100A9C001B4B0A221A601B4B0A221A604FF47A7005
:100AAC0000F092FD4FF4FA7000F0A8FD134B1B6898
:100ABC0001335A4203F0030302F0030258BF5342BE
:100ACC000E4A136007E000BF06E000BF04E000BF61
:100ADC0002E000BF00E000BF00BF80BD0008014085
:100AEC00A000002090000020880000208C00002036
:100AFC001F85EB51440000203400002084000020AE
:100B0C00380000203C00002080B400AF264B1B684E
:100B1C00264A82FB03129211DB17D31A244A136064
:100B2C00234B1B68234A1360224B1B68224A136019
:100B3C00224B1B681D4A82FB03129211DB17D31A3E
:100B4C001F4A13601E4B1B681E4A13601D4B1B680B
:100B5C001D4A13601D4B1B68144A82FB0312921131
:100B6C00DB17D31A1A4A1360194B1B68194A136006
:100B7C00184B1B68184A1360144B1B680B4A82FBFA
:100B8C0003129211DB17D31A144A1360064B1B681D
:100B9C00064A82FB03129211DB17D31A0F4A5360D9
:100BAC0000BFBD4680BC704740000020D34D621092
:100BBC0088000020B8000020CC0000204800002055
:100BCC008C000020C4000020B40000204400002051
:100BDC0090000020C8000020D0000020BC000020A5
:100BEC0080B400AF494B1B68012B09DD474B1B68D8
:100BFC00013B464A1360454B1B68454A136039E07C
:100C0C00444B1B68002B07DD424B1B685A1E4149A5
:100C1C000A603F4A13602DE03F4B1B68002B07DD39
:100C2C003D4B1B685A1E3C490A60394A136021E04F
:100C3C003A4B1B683A4A82FB03129211DB17D31A08
:100C4C00324A1360314B1B68314A1360354B1B68B9
:100C5C00334A82FB03129211DB17D31A2E4A13600C
:100C6C00314B1B682E4A82FB03129211DB17D31AED
:100C7C00284A13602D4B1B68012B09DD2B4B1B687D
:100C8C00013B2A4A1360294B1B68214A536039E007
:100C9C00274B1B68002B07DD254B1B685A1E24496C
:100CAC000A601B4A53602DE0224B1B68002B07DDAA
:100CBC00204B1B685A1E1F490A60154A536021E0DD
:100CCC00184B1B68164A82FB03129211DB17D31ABE
:100CDC00164A1360154B1B680D4A5360124B1B6868
:100CEC000F4A82FB03129211DB17D31A114A1360BD
:100CFC000A4B1B680A4A82FB03129211DB17D31AA8
:100D0C000B4A136000BFBD4680BC7047D00000206A
:100D1C00BC000020B4000020CC00002044000020C7
:100D2C00D34D62104000002048000020B800002085
:100D3C00C8000020C400002080B582B000AF7860ED
:100D4C007B68002B03F00103B8BF5B42044A52F8E6
:100D5C002330184600F0D2FB00BF0837BD4680BDDB
:100D6C00BC00002080B500AF324B1B68012B05D1B5
:100D7C00FFF736FF4FF47A7000F026FC2E4B1B6801
:100D8C00B3F5FA6F32D0B3F5FA6F4BDC0A2B03D004
:100D9C00B3F57A7F0ED045E0274B4FF47A721A6088
:100DAC00FFF7B2FE0020FFF7C7FF4FF4FA7000F018
:100DBC00F1FB3CE000224FF48041204801F057F950
:100DCC0001224FF400411D4801F051F91C4B1B68E6
:100DDC00012B29D1184B4FF4FA621A600120FFF74E
:100DEC00ABFF4FF4FA7000F0D5FB1DE001224FF47D
:100DFC008041124801F03BF900224FF400410F48AA
:100E0C0001F035F90E4B1B68012B0FD10A4B4FF437
:100E1C007A721A600020FFF78FFF4FF4FA7000F01F
:100E2C00B9FB03E000BF02E000BF00E000BF00BF61
:100E3C0080BD00BFA800002038000020000C01403D
:100E4C00A000002080B582B000AF78607B68092BD1
:100E5C0000F2BC8101A252F823F000BF910E0008F1
:100E6C00E50E0008390F00088D0F0008E10F00088F
:100E7C003510000889100008DD1000083111000839
:100E8C008511000800228021D34801F0F0F80022DF
:100E9C004FF48071D04801F0EAF800224FF4007151
:100EAC00CD4801F0E4F800224FF48061CA4801F00B
:100EBC00DEF800224FF40061C74801F0D8F8002298
:100ECC004FF48051C44801F0D2F801224FF4005184
:100EDC00C14801F0CCF87AE101228021BE4801F032
:100EEC00C6F800224FF48071BB4801F0C0F8002214
:100EFC004FF40071B84801F0BAF801224FF4806148
:100F0C00B54801F0B4F801224FF40061B24801F089
:100F1C00AEF801224FF48051AF4801F0A8F801223D
:100F2C004FF40051AC4801F0A2F850E100228021AE
:100F3C00A94801F09CF800224FF48071A64801F0FA
:100F4C0096F801224FF40071A34801F090F80022AA
:100F5C004FF48061A04801F08AF800224FF4006140
:100F6C009D4801F084F801224FF480519A4801F019
:100F7C007EF800224FF40051974801F078F826E1F2
:100F8C0000228021944801F072F800224FF4807105
:100F9C00914801F06CF800224FF400718E4801F07A
:100FAC0066F800224FF480618B4801F060F8012252
:100FBC004FF40061884801F05AF801224FF4805137
:100FCC00854801F054F800224FF40051824801F09A
:100FDC004EF8FCE0012280217F4801F048F8002205
:100FEC004FF480717C4801F042F800224FF40071FC
:100FFC00794801F03CF801224FF48061764801F009
:10100C0036F801224FF40061734801F030F80022E9
:10101C004FF48051704801F02AF800224FF400512F
:10102C006D4801F024F8D2E0002280216A4801F0DA
:10103C001EF801224FF48071674801F018F8002265
:10104C004FF40071644801F012F800224FF48061F3
:10105C00614801F00CF801224FF400615E4801F088
:10106C0006F800224FF480515B4801F000F8002292
:10107C004FF40051584800F0FAFFA8E000228021FC
:10108C00554800F0F4FF01224FF48071524800F0F3
:10109C00EEFF00224FF400714F4800F0E8FF0022F1
:1010AC004FF480614C4800F0E2FF00224FF40061E5
:1010BC00494800F0DCFF00224FF48051464800F014
:1010CC00D6FF00224FF40051434800F0D0FF7EE0E1
:1010DC0000228021404800F0CAFF00224FF48071AA
:1010EC003D4800F0C4FF00224FF400713A4800F074
:1010FC00BEFF01224FF48061374800F0B8FF012297
:10110C004FF40061344800F0B2FF01224FF48051DB
:10111C00314800F0ACFF01224FF400512E4800F092
:10112C00A6FF54E0002280212B4800F0A0FF0022F3
:10113C004FF48071284800F09AFF00224FF40071A0
:10114C00254800F094FF00224FF48061224800F003
:10115C008EFF00224FF400611F4800F088FF002230
:10116C004FF480511C4800F082FF00224FF40051D4
:10117C00194800F07CFF2AE000228021164800F07C
:10118C0076FF00224FF48071134800F070FF0022AC
:10119C004FF40071104800F06AFF00224FF4806198
:1011AC000D4800F064FF01224FF400610A4800F082
:1011BC005EFF00224FF48051074800F058FF0022D8
:1011CC004FF40051044800F052FF00E000BF00BF94
:1011DC000837BD4680BD00BF000C014080B582B011
:1011EC0000AF78607B68092B00F2808101A252F875
:1011FC0023F000BF2912000871120008B912000870
:10120C00011300084913000891130008D9130008B2
:10121C002114000869140008B114000800220121EF
:10122C00B54800F024FF00220221B34800F01FFF54
:10123C0000220421B04800F01AFF00220821AE4819
:10124C0000F015FF00221021AB4800F010FF002227
:10125C002021A94800F00BFF01224021A64800F0F4
:10126C0006FF44E101220121A34800F000FF002207
:10127C000221A14800F0FBFE002204219E4800F050
:10128C00F6FE012208219C4800F0F1FE01221021FB
:10129C00994800F0ECFE01222021974800F0E7FE6F
:1012AC0001224021944800F0E2FE20E100220121BD
:1012BC00914800F0DCFE002202218F4800F0D7FE9E
:1012CC00012204218C4800F0D2FE002208218A4819
:1012DC0000F0CDFE00221021874800F0C8FE01224C
:1012EC002021854800F0C3FE00224021824800F0F6
:1012FC00BEFEFCE0002201217F4800F0B8FE002277
:10130C0002217D4800F0B3FE002204217A4800F04F
:10131C00AEFE00220821784800F0A9FE012210211F
:10132C00754800F0A4FE01222021734800F09FFEB6
:10133C0000224021704800F09AFED8E001220121E1
:10134C006D4800F094FE002202216B4800F08FFEE5
:10135C0000220421684800F08AFE01220821664818
:10136C0000F085FE01221021634800F080FE00226F
:10137C002021614800F07BFE002240215E4800F0F5
:10138C0076FEB4E0002201215B4800F070FE0122E1
:10139C000221594800F06BFE00220421564800F04F
:1013AC0066FE00220821544800F061FE0122102143
:1013BC00514800F05CFE002220214F4800F057FEFF
:1013CC00002240214C4800F052FE90E00022012106
:1013DC00494800F04CFE01220221474800F047FE2C
:1013EC0000220421444800F042FE00220821424819
:1013FC0000F03DFE002210213F4800F038FE002294
:10140C0020213D4800F033FE002240213A4800F0F4
:10141C002EFE6CE000220121374800F028FE00224D
:10142C000221354800F023FE00220421324800F04E
:10143C001EFE01220821304800F019FE0122102165
:10144C002D4800F014FE012220212B4800F00FFE45
:10145C0001224021284800F00AFE48E00022012128
:10146C00254800F004FE00220221234800F0FFFD75
:10147C0000220421204800F0FAFD002208211E4819
:10148C0000F0F5FD002210211B4800F0F0FD0022B9
:10149C002021194800F0EBFD00224021164800F0F5
:1014AC00E6FD24E000220121134800F0E0FD0022BB
:1014BC000221114800F0DBFD002204210E4800F04F
:1014CC00D6FD002208210C4800F0D1FD012210218C
:1014DC00094800F0CCFD00222021074800F0C7FD90
:1014EC0000224021044800F0C2FD00E000BF00BF14
:1014FC000837BD4680BD00BF000C014080B582B0EE
:10150C0000AF78607B68144A82FB03125111DA1722
:10151C008A1A642101FB02F29B1A7B607B680F4ADA
:10152C0082FB03129210DB17D31A1846FFF756FEF4
:10153C007A680A4B83FB02139910D317C91A0B460E
:10154C009B000B445B00D11A0846FFF77BFC00BFE5
:10155C000837BD4680BD00BF1F85EB5167666666C8
:10156C0080B483B000AF7860074B1B687A6892FB3D
:10157C00F3F3064A1360064B00221A6000BF0C37C7
:10158C00BD4680BC704700BF4C000020940000207A
:10159C009800002080B483B000AF7860074B1B68C4
:1015AC007A6892FBF3F3064A1360064B00221A602A
:1015BC0000BF0C37BD4680BC704700BF4C000020FC
:1015CC009C000020A000002080B483B000AF7860A5
:1015DC00074B1B687A6892FBF3F3064A1360064BC1
:1015EC0000221A6000BF0C37BD4680BC704700BF9C
:1015FC004C000020A4000020A800002080B483B080
:10160C0000AF7860074B1B687A6892FBF3F3064ACD
:10161C001360064B00221A6000BF0C37BD4680BC1D
:10162C00704700BF4C000020AC000020B000002030
:10163C0080B400AF194B1B68013B184A1360184B60
:10164C001B68013B164A1360164B1B68013B154A7D
:10165C001360154B1B68013B134A13600F4B1B683F
:10166C00002B02DA114B01221A600D4B1B68002B68
:10167C0002DA0F4B01221A600A4B1B68002B02DAAC
:10168C000C4B01221A60084B1B68002B02DA0A4B28
:10169C0001221A6000BFBD4680BC70479400002038
:1016AC009C000020A4000020AC000020980000202A
:1016BC00A0000020A8000020B000002080B500AFE2
:1016CC0000F0D4F900F012F800F098F800F04AF8A5
:1016DC00054801F029F9FFF717FA4FF47A70FFF774
:1016EC0073FFFFF715F8FCE7D400002080B590B02D
:1016FC0000AF07F1180328220021184601F0C4FCA2
:10170C003B1D00221A605A609A60DA601A6102234B
:10171C00BB610123BB621023FB6200237B6307F1D7
:10172C001803184600F0D4FC0346002B01D000F03F
:10173C00E3F80F237B600023BB600023FB600023D6
:10174C003B6100237B613B1D0021184600F040FFEC
:10175C000346002B01D000F0CFF800BF4037BD4648
:10176C0080BD000080B586B000AF07F108030022F1
:10177C001A605A609A60DA603B4600221A605A601E
:10178C001D4B4FF080421A601B4B41F63F725A6062
:10179C00194B00229A60184B0922DA60164B002272
:1017AC001A61154B00229A61134801F06DF803463B
:1017BC00002B01D000F0A0F84FF48053BB6007F170
:1017CC00080319460C4801F0EBF90346002B01D035
:1017DC0000F092F800233B6000237B603B461946E7
:1017EC00054801F0C3FB0346002B01D000F084F840
:1017FC0000BF1837BD4680BDD400002080B588B02E
:10180C0000AF07F1100300221A605A609A60DA6088
:10181C002F4B9B692E4A43F0100393612C4B9B6911
:10182C0003F01003FB60FB68294B9B69284A43F0CB
:10183C0004039361264B9B6903F00403BB60BB68F4
:10184C00234B9B69224A43F008039361204B9B690D
:10185C0003F008037B607B6800224FF4FC611D4899
:10186C0000F005FC00224FF6FF711B4800F0FFFB57
:10187C004FF460433B6100237B610123BB6107F1A3
:10188C0010031946154800F061FA4FF4FC633B61F4
:10189C0001237B610023BB610223FB6107F1100371
:1018AC0019460C4800F052FA4FF6FF733B610123C6
:1018BC007B610023BB610223FB6107F11003194616
:1018CC00054800F043FA00BF2037BD4680BD00BF7D
:1018DC000010024000080140000C014000100140C3
:1018EC0080B582B000AF7860FFF7A2FEFEF75EFC19
:1018FC0000BF0837BD4680BD80B400AF72B600BFD4
:10190C00FEE7000080B485B000AF154B9B69144A0C
:10191C0043F001039361124B9B6903F00103BB601D
:10192C00BB680F4BDB690E4A43F08053D3610C4B01
:10193C00DB6903F080537B607B680A4B5B68FB6060
:10194C00FB6823F0E063FB60FB6843F08063FB60A3
:10195C00044AFB68536000BF1437BD4680BC704717
:10196C00001002400000014080B584B000AF7860E8
:10197C007B681B68B3F1804F13D10C4BDB690B4AAE
:10198C0043F00103D361094BDB6903F00103FB60F6
:10199C00FB68002200211C2000F0A1F91C2000F0A3
:1019AC00BAF900BF1037BD4680BD00BF0010024021
:1019BC0080B400AFFEE780B400AFFEE780B400AFA8
:1019CC00FEE780B400AFFEE780B400AFFEE780B462
:1019DC0000AF00BFBD4680BC704780B400AF00BFF5
:1019EC00BD4680BC704780B400AF00BFBD4680BC14
:1019FC00704780B500AF00F07FF800BF80BD0000DD
:101A0C0080B500AF024800F0DBFF00BF80BD00BF17
:101A1C00D400002080B400AF00BFBD4680BC70472E
:101A2C00FFF7F8FF0B480C490C4A002302E0D4588E
:101A3C00C4500433C4188C42F9D3094A094C00230E
:101A4C0001E013600432A242FBD301F0F9FAFFF774
:101A5C0035FE7047000000205C000020E8300008D4
:101A6C005C00002020010020FEE7000080B500AFE4
:101A7C00084B1B68074A43F010031360032000F067
:101A8C0023F90F2000F008F8FFF73CFF002318465D
:101A9C0080BD00BF0020024080B582B000AF7860EE
:101AAC00124B1A68124B1B7819464FF47A73B3FB1E
:101ABC00F1F3B2FBF3F3184600F03BF90346002BAD
:101ACC0001D001230EE07B680F2B0AD80022796825
:101ADC004FF0FF3000F003F9064A7B6813600023D7
:101AEC0000E0012318460837BD4680BD5000002099
:101AFC00580000205400002080B400AF054B1B7828
:101B0C001A46054B1B681344034A136000BFBD46BD
:101B1C0080BC7047580000201C01002080B400AF2E
:101B2C00024B1B681846BD4680BC70471C01002048
:101B3C0080B485B000AF78607B6803F00703FB606E
:101B4C000C4BDB68BB60BA684FF6FF031340BB60FD
:101B5C00FB681A02BB68134343F0BF6343F40033C2
:101B6C00BB60044ABB68D36000BF1437BD4680BC61
:101B7C00704700BF00ED00E080B400AF044BDB68A1
:101B8C001B0A03F007031846BD4680BC704700BF14
:101B9C0000ED00E080B483B000AF0346FB7197F911
:101BAC000730002B0BDBFB7903F01F02064997F97A
:101BBC0007305B09012000FA02F241F8232000BF34
:101BCC000C37BD4680BC704700E100E080B483B0A8
:101BDC0000AF03463960FB7197F90730002B0ADB25
:101BEC003B68DAB20C4997F907301201D2B20B44B8
:101BFC0083F800230AE03B68DAB20849FB7903F06A
:101C0C000F03043B1201D2B20B441A7600BF0C37FF
:101C1C00BD4680BC704700BF00E100E000ED00E075
:101C2C0080B489B000AFF860B9607A60FB6803F0EB
:101C3C000703FB61FB69C3F10703042B28BF0423D3
:101C4C00BB61FB690433062B02D9FB69033B00E043
:101C5C0000237B614FF0FF32BB6902FA03F3DA43D6
:101C6C00BB681A407B699A404FF0FF317B6901FADF
:101C7C0003F3D9437B680B40134318462437BD4606
:101C8C0080BC704780B582B000AF78607B68013B48
:101C9C00B3F1807F01D301230FE00A4A7B68013B3B
:101CAC0053600F214FF0FF30FFF790FF054B0022E0
:101CBC009A60044B07221A60002318460837BD4669
:101CCC0080BD00BF10E000E080B582B000AF78604E
:101CDC007868FFF72DFF00BF0837BD4680BD80B583
:101CEC0086B000AF0346B9607A60FB7300237B615A
:101CFC00FFF742FF78617A68B9687869FFF790FF5F
:101D0C00024697F90F3011461846FFF75FFF00BFE8
:101D1C001837BD4680BD80B582B000AF0346FB715D
:101D2C0097F907301846FFF735FF00BF0837BD4657
:101D3C0080BD80B582B000AF78607868FFF7A2FFF5
:101D4C00034618460837BD4680BD000080B48BB0F2
:101D5C0000AF7860396000237B6200233B6248E16E
:101D6C0001227B6A02FA03F3FB613B681B68FA6988
:101D7C001340BB61BA69FB699A4240F037813B68FA
:101D8C005B68A34A93425ED0A14A934275D8A14A9C
:101D9C00934258D09F4A93426FD89F4A934252D055
:101DAC009D4A934269D89D4A93424CD09B4A934298
:101DBC0063D89B4A934246D0994A93425DD8122BE2
:101DCC002AD8122B59D801A252F823F0531E00081E
:101DDC002D1E00083F1E0008811E0008871E0008EB
:101DEC00871E0008871E0008871E0008871E000833
:101DFC00871E0008871E0008871E0008871E000823
:101E0C00871E0008871E0008871E0008871E000812
:101E1C00351E0008491E0008824A934213D02CE05C
:101E2C003B68DB683B6229E03B68DB6804333B6260
:101E3C0024E03B68DB6808333B621FE03B68DB68EF
:101E4C000C333B621AE03B689B68002B02D10423E5
:101E5C003B6213E03B689B68012B05D108233B6276
:101E6C007B68FA691A6109E008233B627B68FA69AE
:101E7C005A6103E000233B6200E000BFBB69FF2B0B
:101E8C0001D87B6801E07B6804337B61BB69FF2B65
:101E9C0002D87B6A9B0002E07B6A083B9B003B619B
:101EAC007B691A680F213B6901FA03F3DB431A4083
:101EBC00396A3B6901FA03F31A437B691A603B6880
:101ECC005B6803F08053002B00F09080564B9B69AD
:101EDC00554A43F001039361534B9B6903F0010393
:101EEC00BB60BB68514A7B6A9B08023352F82330B3
:101EFC00FB607B6A03F003039B000F2202FA03F3DF
:101F0C00DB43FA681340FB607B68494A93420DD06F
:101F1C007B68484A934207D07B68474A934201D179
:101F2C00022304E0032302E0012300E000237A6A89
:101F3C0002F0030292009340FA681343FB603B49A2
:101F4C007B6A9B080233FA6841F823203B685B6884
:101F5C0003F48013002B06D0384B9A683749BB69C1
:101F6C0013438B6006E0354B9A68BB69DB433349FE
:101F7C0013408B603B685B6803F40013002B06D0A6
:101F8C002E4BDA682D49BB691343CB6006E02B4B13
:101F9C00DA68BB69DB4329491340CB603B685B685B
:101FAC0003F40033002B06D0244B5A682349BB6939
:101FBC0013434B6006E0214B5A68BB69DB431F4956
:101FCC0013404B603B685B6803F48033002B06D0F6
:101FDC001A4B1A681949BB6913430B6006E0174B7F
:101FEC001A68BB69DB43154913400B607B6A0133EC
:101FFC007B623B681A687B6A22FA03F3002B7FF43E
:10200C00AFAE00BF00BF2C37BD4680BC704700BFD1
:10201C0000003210000031100000221000002110CE
:10202C0000001210000011100010024000000140CE
:10203C0000080140000C0140001001400004014068
:10204C0080B485B000AF78600B467B807B689A6863
:10205C007B881340002B02D00123FB7301E000238B
:10206C00FB73FB7B18461437BD4680BC704780B4AD
:10207C0083B000AF78600B467B8013467B707B7817
:10208C00002B03D07A887B681A6103E07B881A04E2
:10209C007B681A6100BF0C37BD4680BC704780B4AA
:1020AC0085B000AF78600B467B807B68DB68FB609B
:1020BC007A88FB6813401A04FB68D9437B880B4071
:1020CC001A437B681A6100BF1437BD4680BC704749
:1020DC0080B586B000AF78607B68002B01D10123FE
:1020EC006CE27B681B6803F00103002B00F0878017
:1020FC00924B5B6803F00C03042B0CD08F4B5B688A
:10210C0003F00C03082B12D18C4B5B6803F4803367
:10211C00B3F5803F0BD1894B1B6803F40033002BC4
:10212C006CD07B685B68002B68D1012346E27B682E
:10213C005B68B3F5803F06D1804B1B687F4A43F444
:10214C00803313602EE07B685B68002B0CD17B4BDB
:10215C001B687A4A23F480331360784B1B68774AE8
:10216C0023F4802313601DE07B685B68B3F5A02F1C
:10217C000CD1724B1B68714A43F4802313606F4B74
:10218C001B686E4A43F4803313600BE06B4B1B6887
:10219C006A4A23F480331360684B1B68674A23F444
:1021AC00802313607B685B68002B13D0FFF7B6FCB1
:1021BC00386108E0FFF7B2FC02463B69D31A642B86
:1021CC0001D90323FAE15D4B1B6803F40033002BA8
:1021DC00F0D014E0FFF7A2FC386108E0FFF79EFC9A
:1021EC0002463B69D31A642B01D90323E6E1534B16
:1021FC001B6803F40033002BF0D100E000BF7B68B8
:10220C001B6803F00203002B63D04C4B5B6803F09C
:10221C000C03002B0BD0494B5B6803F00C03082B11
:10222C001CD1464B5B6803F48033002B16D1434B17
:10223C001B6803F00203002B05D07B681B69012B84
:10224C0001D00123BAE13D4B1B6823F0F8027B68F7
:10225C005B69DB00394913430B603AE07B681B690F
:10226C00002B20D0364B01221A60FFF757FC386147
:10227C0008E0FFF753FC02463B69D31A022B01D945
:10228C0003239BE12D4B1B6803F00203002BF0D0C2
:10229C002A4B1B6823F0F8027B685B69DB0027493B
:1022AC0013430B6015E0264B00221A60FFF736FC37
:1022BC00386108E0FFF732FC02463B69D31A022B67
:1022CC0001D903237AE11D4B1B6803F00203002B99
:1022DC00F0D17B681B6803F00803002B3AD07B68B5
:1022EC009B69002B19D0174B01221A60FFF716FCC3
:1022FC00386108E0FFF712FC02463B69D31A022B47
:10230C0001D903235AE10D4B5B6A03F00203002B46
:10231C00F0D0012000F09AFA1CE00A4B00221A605F
:10232C00FFF7FCFB38610FE0FFF7F8FB02463B6957
:10233C00D31A022B08D9032340E100BF001002403E
:10234C0000004242800442429E4B5B6A03F002034F
:10235C00002BE9D17B681B6803F00403002B00F011
:10236C00A6800023FB75974BDB6903F08053002B91
:10237C000DD1944BDB69934A43F08053D361914B5D
:10238C00DB6903F08053BB60BB680123FB758E4B8C
:10239C001B6803F48073002B18D18B4B1B688A4A83
:1023AC0043F480731360FFF7B9FB386108E0FFF763
:1023BC00B5FB02463B69D31A642B01D90323FDE01C
:1023CC00814B1B6803F48073002BF0D07B68DB68B7
:1023DC00012B06D17B4B1B6A7A4A43F00103136233
:1023EC002DE07B68DB68002B0CD1764B1B6A754AA1
:1023FC0023F001031362734B1B6A724A23F004032C
:10240C0013621CE07B68DB68052B0CD16D4B1B6ADF
:10241C006C4A43F0040313626A4B1B6A694A43F02B
:10242C00010313620BE0674B1B6A664A23F001033E
:10243C001362644B1B6A634A23F0040313627B68C8
:10244C00DB68002B15D0FFF769FB38610AE0FFF75A
:10245C0065FB02463B69D31A41F28832934201D99B
:10246C000323ABE0574B1B6A03F00203002BEED0A7
:10247C0014E0FFF753FB38610AE0FFF74FFB02460D
:10248C003B69D31A41F28832934201D9032395E078
:10249C004C4B1B6A03F00203002BEED1FB7D012B8E
:1024AC0005D1484BDB69474A23F08053D3617B68E5
:1024BC00DB69002B00F08180424B5B6803F00C035E
:1024CC00082B61D07B68DB69022B46D13F4B002285
:1024DC001A60FFF723FB386108E0FFF71FFB024689
:1024EC003B69D31A022B01D9032367E0354B1B68D8
:1024FC0003F00073002BF0D17B681B6AB3F5803FAF
:10250C0008D1304B5B6823F400327B689B682D4903
:10251C0013434B602B4B5B6823F474127B68196A72
:10252C007B685B6A0B43274913434B60274B0122A3
:10253C001A60FFF7F3FA386108E0FFF7EFFA02468A
:10254C003B69D31A022B01D9032337E01D4B1B68BF
:10255C0003F00073002BF0D02FE01C4B00221A600C
:10256C00FFF7DCFA386108E0FFF7D8FA02463B695E
:10257C00D31A022B01D9032320E0124B1B6803F062
:10258C000073002BF0D118E07B68DB69012B01D1C3
:10259C00012313E00B4B5B68FB60FB6803F4803298
:1025AC007B681B6A9A4206D1FB6803F470127B6845
:1025BC005B6A9A4201D0012300E0002318461837C9
:1025CC00BD4680BD001002400070004060004242D9
:1025DC0080B584B000AF786039607B68002B01D186
:1025EC000123D0E06A4B1B6803F007033A689A4258
:1025FC0010D9674B1B6823F0070265493B681343EE
:10260C000B60634B1B6803F007033A689A4201D0D6
:10261C000123B8E07B681B6803F00203002B20D079
:10262C007B681B6803F00403002B05D0594B5B68D7
:10263C00584A43F4E06353607B681B6803F008035B
:10264C00002B05D0534B5B68524A43F460535360E4
:10265C00504B5B6823F0F0027B689B684D49134339
:10266C004B607B681B6803F00103002B40D07B6838
:10267C005B68012B07D1474B1B6803F40033002B1D
:10268C0015D101237FE07B685B68022B07D1414B9E
:10269C001B6803F00073002B09D1012373E03D4B41
:1026AC001B6803F00203002B01D101236BE0394BB3
:1026BC005B6823F003027B685B68364913434B600D
:1026CC00FFF72CFAF8600AE0FFF728FA0246FB68DD
:1026DC00D31A41F28832934201D9032353E02D4B94
:1026EC005B6803F00C027B685B689B009A42EBD141
:1026FC00274B1B6803F007033A689A4210D2244B0D
:10270C001B6823F0070222493B6813430B60204BE4
:10271C001B6803F007033A689A4201D0012332E0A8
:10272C007B681B6803F00403002B08D0194B5B6813
:10273C0023F4E0627B68DB68164913434B607B68CB
:10274C001B6803F00803002B09D0124B5B6823F4C1
:10275C0060527B681B69DB000E4913434B6000F031
:10276C0021F802460B4B5B681B0903F00F030A4967
:10277C00CB5C22FA03F3094A1360094B1B68184619
:10278C00FFF78AF9002318461037BD4680BD00BFFD
:10279C000020024000100240BC3000085000002015
:1027AC005400002080B487B000AF0023FB600023EE
:1027BC00BB6000237B6100237B6000233B611E4BCD
:1027CC005B68FB60FB6803F00C03042B02D0082B46
:1027DC0003D027E0194B3B6127E0FB689B0C03F00F
:1027EC000F03174AD35C7B60FB6803F48033002B28
:1027FC0010D0114B5B685B0C03F00103114AD35CE6
:10280C00BB607B680D4A02FB03F2BB68B2FBF3F3BF
:10281C007B6104E07B680C4A02FB03F37B617B6900
:10282C003B6102E0054B3B6100BF3B6918461C371E
:10283C00BD4680BC704700BF0010024000127A00F9
:10284C00CC300008DC30000800093D0080B485B0B5
:10285C0000AF78600A4B1B680A4AA2FB03235B0A91
:10286C007A6802FB03F3FB6000BFFB685A1EFA6038
:10287C00002BF9D100BF00BF1437BD4680BC704798
:10288C0050000020D34D621080B582B000AF78604C
:10289C007B68002B01D1012341E07B6893F83D302C
:1028AC00DBB2002B06D17B68002283F83C207868D1
:1028BC00FFF75AF87B68022283F83D207B681A6880
:1028CC007B6804331946104600F056FA7B680122E7
:1028DC0083F846207B68012283F83E207B68012226
:1028EC0083F83F207B68012283F840207B6801221B
:1028FC0083F841207B68012283F842207B68012207
:10290C0083F843207B68012283F844207B680122F2
:10291C0083F845207B68012283F83D20002318466C
:10292C000837BD4680BD000080B485B000AF78602C
:10293C007B6893F83D30DBB2012B01D0012335E0ED
:10294C007B68022283F83D207B681B68DA687B6811
:10295C001B6842F00102DA607B681B68164A9342DE
:10296C0009D07B681B68B3F1804F04D07B681B686F
:10297C00124A934211D17B681B689B6803F00703D2
:10298C00FB60FB68062B10D07B681B681A687B68A1
:10299C001B6842F001021A6007E07B681B681A682A
:1029AC007B681B6842F001021A600023184614373A
:1029BC00BD4680BC704700BF002C014000040040A5
:1029CC0080B584B000AF78607B681B68DB68FB6007
:1029DC007B681B681B69BB60BB6803F00203002BA0
:1029EC0020D0FB6803F00203002B1BD07B681B6814
:1029FC006FF002021A617B6801221A777B681B68F0
:102A0C009B6903F00303002B03D0786800F098F95E
:102A1C0005E0786800F08BF9786800F09AF97B682B
:102A2C0000221A77BB6803F00403002B20D0FB684C
:102A3C0003F00403002B1BD07B681B686FF00402AF
:102A4C001A617B6802221A777B681B689B6903F406
:102A5C004073002B03D0786800F072F905E07868B9
:102A6C0000F065F9786800F074F97B6800221A7739
:102A7C00BB6803F00803002B20D0FB6803F00803AD
:102A8C00002B1BD07B681B686FF008021A617B68F7
:102A9C0004221A777B681B68DB6903F00303002BA5
:102AAC0003D0786800F04CF905E0786800F03FF945
:102ABC00786800F04EF97B6800221A77BB6803F047
:102ACC001003002B20D0FB6803F01003002B1BD04D
:102ADC007B681B686FF010021A617B6808221A77FA
:102AEC007B681B68DB6903F44073002B03D07868A8
:102AFC0000F026F905E0786800F019F9786800F024
:102B0C0028F97B6800221A77BB6803F00103002BBD
:102B1C000CD0FB6803F00103002B07D07B681B680B
:102B2C006FF001021A617868FEF7DAFEBB6803F0F9
:102B3C008003002B0CD0FB6803F08003002B07D024
:102B4C007B681B686FF080021A61786800F06FFA7E
:102B5C00BB6803F04003002B0CD0FB6803F0400370
:102B6C00002B07D07B681B686FF040021A617868F5
:102B7C0000F0F8F8BB6803F02003002B0CD0FB68C6
:102B8C0003F02003002B07D07B681B686FF020023A
:102B9C001A61786800F042FA00BF1037BD4680BD5C
:102BAC0080B584B000AF786039600023FB737B681C
:102BBC0093F83C30012B01D10223B4E07B68012255
:102BCC0083F83C207B68022283F83D207B681B68DD
:102BDC009B68BB60BB6823F07703BB60BB6823F4C6
:102BEC007F43BB607B681B68BA689A603B681B6854
:102BFC00B3F5005F3ED0B3F5005F00F28780B3F50C
:102C0C00805F00F08680B3F5805F7FD8702B1AD080
:102C1C00702B7BD8602B50D0602B77D8502B3CD0AE
:102C2C00502B73D8402B58D0402B6FD8302B64D0FE
:102C3C00302B6BD8202B60D0202B67D8002B5CD08E
:102C4C00102B5AD062E07B6818683B6899683B6827
:102C5C005A683B68DB6800F06AF97B681B689B6804
:102C6C00BB60BB6843F07703BB607B681B68BA68CA
:102C7C009A604FE07B6818683B6899683B685A68B3
:102C8C003B68DB6800F053F97B681B689A687B68CB
:102C9C001B6842F480429A603CE07B6818683B6891
:102CAC0059683B68DB681A4600F0CAF87B681B68F9
:102CBC005021184600F021F92CE07B6818683B681D
:102CCC0059683B68DB681A4600F0E8F87B681B68BB
:102CDC006021184600F011F91CE07B6818683B680D
:102CEC0059683B68DB681A4600F0AAF87B681B68D9
:102CFC004021184600F001F90CE07B681A683B682B
:102D0C001B681946104600F0F8F803E00123FB732A
:102D1C0000E000BF7B68012283F83D207B68002225
:102D2C0083F83C20FB7B18461037BD4680BD80B431
:102D3C0083B000AF786000BF0C37BD4680BC7047D5
:102D4C0080B483B000AF786000BF0C37BD4680BC48
:102D5C00704780B483B000AF786000BF0C37BD46BD
:102D6C0080BC704780B483B000AF786000BF0C3774
:102D7C00BD4680BC7047000080B485B000AF786061
:102D8C0039607B681B68FB607B682B4A934207D0D9
:102D9C007B68B3F1804F03D07B68284A934208D1FB
:102DAC00FB6823F07003FB603B685B68FA681343B5
:102DBC00FB607B68204A934207D07B68B3F1804F5D
:102DCC0003D07B681D4A934208D1FB6823F44073FF
:102DDC00FB603B68DB68FA681343FB60FB6823F01D
:102DEC0080023B685B691343FB607B68FA681A607E
:102DFC003B689A687B68DA623B681A687B689A62FF
:102E0C007B680D4A934203D13B681A697B681A634D
:102E1C007B6801225A617B681B6903F00103002B5C
:102E2C0005D07B681B6923F001027B681A6100BF27
:102E3C001437BD4680BC7047002C01400004004094
:102E4C0080B487B000AFF860B9607A60FB681B6A29
:102E5C007B61FB681B6A23F00102FB681A62FB684A
:102E6C009B693B613B6923F0F0033B617B681B0171
:102E7C003A6913433B617B6923F00A037B617A69EE
:102E8C00BB6813437B61FB683A699A61FB687A699A
:102E9C001A6200BF1C37BD4680BC704780B487B037
:102EAC0000AFF860B9607A60FB681B6A7B61FB68F5
:102EBC001B6A23F01002FB681A62FB689B693B617A
:102ECC003B6923F470433B617B681B033A691343F2
:102EDC003B617B6923F0A0037B61BB681B017A69B2
:102EEC0013437B61FB683A699A61FB687A691A62E1
:102EFC0000BF1C37BD4680BC704780B485B000AFA6
:102F0C00786039607B689B68FB60FB6823F070031A
:102F1C00FB603A68FB68134343F00703FB607B6874
:102F2C00FA689A6000BF1437BD4680BC704780B405
:102F3C0087B000AFF860B9607A603B60FB689B6853
:102F4C007B617B6923F47F437B613B681A027B685E
:102F5C001A43BB6813437A6913437B61FB687A6934
:102F6C009A6000BF1C37BD4680BC704780B485B0EA
:102F7C0000AF786039607B6893F83C30012B01D14D
:102F8C00022341E07B68012283F83C207B6802220B
:102F9C0083F83D207B681B685B68FB607B681B6863
:102FAC009B68BB60FB6823F07003FB603B681B688D
:102FBC00FA681343FB607B681B68FA685A607B688D
:102FCC001B68144A934209D07B681B68B3F1804F8D
:102FDC0004D07B681B68104A93420CD1BB6823F069
:102FEC008003BB603B685B68BA681343BB607B685B
:102FFC001B68BA689A607B68012283F83D207B6865
:10300C00002283F83C20002318461437BD4680BCB0
:10301C00704700BF002C01400004004080B483B016
:10302C0000AF786000BF0C37BD4680BC704780B4E1
:10303C0083B000AF786000BF0C37BD4680BC7047D2
:10304C0070B500260C4D0D4C641BA410A64209D182
:10305C0000F022F800260A4D0A4C641BA410A6426C
:10306C0005D170BD55F8043B98470136EEE755F88D
:10307C00043B98470136F2E7E0300008E0300008E6
:10308C00E0300008E430000803460244934200D1CB
:10309C00704703F8011BF9E7F8B500BFF8BC08BC92
:1030AC009E467047F8B500BFF8BC08BC9E467047FA
:1030BC0000000000000000000102030406070809DC
:1030CC0002030405060708090A0B0C0D0E0F10105D
:0430DC0001020000ED
:0430E00031010008B2
:0430E4000D010008D2
:1030E80001000000000000000000000001000000D6
:1030F80000000000000000000100000000000000C7
:1031080000000000010000000000000000000000B6
:10311800320000000A0000000A0000000A00000057
:1031280088130000B80B0000D00700000A00000058
:0C31380000127A001000000001000000EE
:0400000508001A2DA8
:00000001FF
